{
  "contractName": "LeaseGenerator",
  "abi": [
    {
      "inputs": [],
      "payable": true,
      "stateMutability": "payable",
      "type": "constructor"
    },
    {
      "anonymous": false,
      "inputs": [
        {
          "indexed": false,
          "internalType": "uint256",
          "name": "transferAmount",
          "type": "uint256"
        },
        {
          "indexed": false,
          "internalType": "uint256",
          "name": "leaseBalanceWei",
          "type": "uint256"
        }
      ],
      "name": "fundsWithdrawn",
      "type": "event"
    },
    {
      "anonymous": false,
      "inputs": [
        {
          "indexed": false,
          "internalType": "uint8",
          "name": "numberOfMonths",
          "type": "uint8"
        },
        {
          "indexed": false,
          "internalType": "uint8",
          "name": "monthsPaid",
          "type": "uint8"
        },
        {
          "indexed": false,
          "internalType": "uint16",
          "name": "monthlyAmountUsd",
          "type": "uint16"
        },
        {
          "indexed": false,
          "internalType": "uint16",
          "name": "leaseDepositUsd",
          "type": "uint16"
        },
        {
          "indexed": false,
          "internalType": "uint32",
          "name": "leasePaymentWindowSeconds",
          "type": "uint32"
        },
        {
          "indexed": false,
          "internalType": "bool",
          "name": "leaseDepositPaid",
          "type": "bool"
        },
        {
          "indexed": false,
          "internalType": "bool",
          "name": "leaseFullyPaid",
          "type": "bool"
        }
      ],
      "name": "leaseCreated",
      "type": "event"
    },
    {
      "anonymous": false,
      "inputs": [
        {
          "indexed": false,
          "internalType": "address",
          "name": "tenantAddress",
          "type": "address"
        },
        {
          "indexed": false,
          "internalType": "uint256",
          "name": "amountCollected",
          "type": "uint256"
        }
      ],
      "name": "leaseDepositCollected",
      "type": "event"
    },
    {
      "anonymous": false,
      "inputs": [
        {
          "indexed": false,
          "internalType": "address",
          "name": "tenantAddress",
          "type": "address"
        },
        {
          "indexed": false,
          "internalType": "uint256",
          "name": "amountSentUsd",
          "type": "uint256"
        }
      ],
      "name": "leaseDepositPaid",
      "type": "event"
    },
    {
      "anonymous": false,
      "inputs": [
        {
          "indexed": false,
          "internalType": "address",
          "name": "tenantAddress",
          "type": "address"
        },
        {
          "indexed": false,
          "internalType": "uint256",
          "name": "amountReclaimed",
          "type": "uint256"
        }
      ],
      "name": "leaseDepositReclaimed",
      "type": "event"
    },
    {
      "anonymous": false,
      "inputs": [
        {
          "indexed": false,
          "internalType": "address",
          "name": "tenantAddress",
          "type": "address"
        },
        {
          "indexed": false,
          "internalType": "uint256",
          "name": "numberOfmonths",
          "type": "uint256"
        },
        {
          "indexed": false,
          "internalType": "uint256",
          "name": "monthsPaid",
          "type": "uint256"
        }
      ],
      "name": "leaseFullyPaid",
      "type": "event"
    },
    {
      "anonymous": false,
      "inputs": [
        {
          "indexed": false,
          "internalType": "address",
          "name": "tenantAddress",
          "type": "address"
        },
        {
          "indexed": false,
          "internalType": "uint256",
          "name": "amountSentUsd",
          "type": "uint256"
        }
      ],
      "name": "leasePaymentPaid",
      "type": "event"
    },
    {
      "payable": true,
      "stateMutability": "payable",
      "type": "fallback"
    },
    {
      "constant": false,
      "inputs": [
        {
          "internalType": "bytes32",
          "name": "myId",
          "type": "bytes32"
        },
        {
          "internalType": "string",
          "name": "result",
          "type": "string"
        }
      ],
      "name": "__callback",
      "outputs": [],
      "payable": false,
      "stateMutability": "nonpayable",
      "type": "function"
    },
    {
      "constant": false,
      "inputs": [
        {
          "internalType": "bytes32",
          "name": "_myid",
          "type": "bytes32"
        },
        {
          "internalType": "string",
          "name": "_result",
          "type": "string"
        },
        {
          "internalType": "bytes",
          "name": "_proof",
          "type": "bytes"
        }
      ],
      "name": "__callback",
      "outputs": [],
      "payable": false,
      "stateMutability": "nonpayable",
      "type": "function"
    },
    {
      "constant": false,
      "inputs": [
        {
          "internalType": "uint8",
          "name": "numberOfMonths",
          "type": "uint8"
        },
        {
          "internalType": "uint16",
          "name": "monthlyAmountUsd",
          "type": "uint16"
        },
        {
          "internalType": "uint16",
          "name": "leaseDepositUsd",
          "type": "uint16"
        },
        {
          "internalType": "uint32",
          "name": "leasePaymentWindowSeconds",
          "type": "uint32"
        },
        {
          "internalType": "uint32",
          "name": "depositPaymentWindowSeconds",
          "type": "uint32"
        },
        {
          "internalType": "address payable",
          "name": "tenantAddr",
          "type": "address"
        }
      ],
      "name": "createNewLease",
      "outputs": [],
      "payable": false,
      "stateMutability": "nonpayable",
      "type": "function"
    },
    {
      "constant": false,
      "inputs": [],
      "name": "payLeaseDeposit",
      "outputs": [],
      "payable": true,
      "stateMutability": "payable",
      "type": "function"
    },
    {
      "constant": false,
      "inputs": [],
      "name": "payLease",
      "outputs": [],
      "payable": true,
      "stateMutability": "payable",
      "type": "function"
    },
    {
      "constant": false,
      "inputs": [
        {
          "internalType": "address payable",
          "name": "tenantAddr",
          "type": "address"
        }
      ],
      "name": "collectLeaseDeposit",
      "outputs": [],
      "payable": false,
      "stateMutability": "nonpayable",
      "type": "function"
    },
    {
      "constant": false,
      "inputs": [],
      "name": "reclaimLeaseDeposit",
      "outputs": [],
      "payable": false,
      "stateMutability": "nonpayable",
      "type": "function"
    },
    {
      "constant": false,
      "inputs": [],
      "name": "withdrawFunds",
      "outputs": [],
      "payable": false,
      "stateMutability": "nonpayable",
      "type": "function"
    },
    {
      "constant": true,
      "inputs": [
        {
          "internalType": "address",
          "name": "tenant",
          "type": "address"
        }
      ],
      "name": "getLease",
      "outputs": [
        {
          "internalType": "uint8",
          "name": "",
          "type": "uint8"
        },
        {
          "internalType": "uint8",
          "name": "",
          "type": "uint8"
        },
        {
          "internalType": "uint16",
          "name": "",
          "type": "uint16"
        },
        {
          "internalType": "uint16",
          "name": "",
          "type": "uint16"
        },
        {
          "internalType": "uint32",
          "name": "",
          "type": "uint32"
        },
        {
          "internalType": "uint64",
          "name": "",
          "type": "uint64"
        },
        {
          "internalType": "uint64",
          "name": "",
          "type": "uint64"
        },
        {
          "internalType": "bool",
          "name": "",
          "type": "bool"
        },
        {
          "internalType": "bool",
          "name": "",
          "type": "bool"
        }
      ],
      "payable": false,
      "stateMutability": "view",
      "type": "function"
    },
    {
      "constant": true,
      "inputs": [],
      "name": "getRate",
      "outputs": [
        {
          "internalType": "uint256",
          "name": "",
          "type": "uint256"
        }
      ],
      "payable": false,
      "stateMutability": "view",
      "type": "function"
    },
    {
      "constant": true,
      "inputs": [],
      "name": "getContractBalance",
      "outputs": [
        {
          "internalType": "uint256",
          "name": "",
          "type": "uint256"
        }
      ],
      "payable": false,
      "stateMutability": "view",
      "type": "function"
    }
  ],
  "bytecode": "0x608060405233600560006101000a81548173ffffffffffffffffffffffffffffffffffffffff021916908373ffffffffffffffffffffffffffffffffffffffff1602179055506200005b64174876e800620000b660201b60201c565b73d08fb39f871bf7d21e3189bf1c3802a7c150554d600160006101000a81548173ffffffffffffffffffffffffffffffffffffffff021916908373ffffffffffffffffffffffffffffffffffffffff16021790555062000a93565b600073ffffffffffffffffffffffffffffffffffffffff16600160009054906101000a900473ffffffffffffffffffffffffffffffffffffffff1673ffffffffffffffffffffffffffffffffffffffff161480620001465750600062000144600160009054906101000a900473ffffffffffffffffffffffffffffffffffffffff16620003d560201b60201c565b145b1562000160576200015e6000620003e060201b60201c565b505b600160009054906101000a900473ffffffffffffffffffffffffffffffffffffffff1673ffffffffffffffffffffffffffffffffffffffff166338cc48316040518163ffffffff1660e01b8152600401602060405180830381600087803b158015620001cb57600080fd5b505af1158015620001e0573d6000803e3d6000fd5b505050506040513d6020811015620001f757600080fd5b810190808051906020019092919050505073ffffffffffffffffffffffffffffffffffffffff166000809054906101000a900473ffffffffffffffffffffffffffffffffffffffff1673ffffffffffffffffffffffffffffffffffffffff16146200034457600160009054906101000a900473ffffffffffffffffffffffffffffffffffffffff1673ffffffffffffffffffffffffffffffffffffffff166338cc48316040518163ffffffff1660e01b8152600401602060405180830381600087803b158015620002c757600080fd5b505af1158015620002dc573d6000803e3d6000fd5b505050506040513d6020811015620002f357600080fd5b81019080805190602001909291905050506000806101000a81548173ffffffffffffffffffffffffffffffffffffffff021916908373ffffffffffffffffffffffffffffffffffffffff1602179055505b6000809054906101000a900473ffffffffffffffffffffffffffffffffffffffff1673ffffffffffffffffffffffffffffffffffffffff1663ca6ad1e4826040518263ffffffff1660e01b815260040180828152602001915050600060405180830381600087803b158015620003b957600080fd5b505af1158015620003ce573d6000803e3d6000fd5b5050505050565b6000813b9050919050565b6000620003f2620003f960201b60201c565b9050919050565b60008062000421731d3b2638a7cc9f2cb3d298a3da7a90b67e5506ed620003d560201b60201c565b1115620004cd57731d3b2638a7cc9f2cb3d298a3da7a90b67e5506ed600160006101000a81548173ffffffffffffffffffffffffffffffffffffffff021916908373ffffffffffffffffffffffffffffffffffffffff160217905550620004c36040518060400160405280600b81526020017f6574685f6d61696e6e6574000000000000000000000000000000000000000000815250620009c860201b60201c565b60019050620009c5565b6000620004f473c03a2615d5efaf5f49f60b7bb6583eaec212fdf1620003d560201b60201c565b1115620005a05773c03a2615d5efaf5f49f60b7bb6583eaec212fdf1600160006101000a81548173ffffffffffffffffffffffffffffffffffffffff021916908373ffffffffffffffffffffffffffffffffffffffff160217905550620005966040518060400160405280600c81526020017f6574685f726f707374656e330000000000000000000000000000000000000000815250620009c860201b60201c565b60019050620009c5565b6000620005c773b7a07bcf2ba2f2703b24c0691b5278999c59ac7e620003d560201b60201c565b1115620006735773b7a07bcf2ba2f2703b24c0691b5278999c59ac7e600160006101000a81548173ffffffffffffffffffffffffffffffffffffffff021916908373ffffffffffffffffffffffffffffffffffffffff160217905550620006696040518060400160405280600981526020017f6574685f6b6f76616e0000000000000000000000000000000000000000000000815250620009c860201b60201c565b60019050620009c5565b60006200069a73146500cfd35b22e4a392fe0adc06de1a1368ed48620003d560201b60201c565b1115620007465773146500cfd35b22e4a392fe0adc06de1a1368ed48600160006101000a81548173ffffffffffffffffffffffffffffffffffffffff021916908373ffffffffffffffffffffffffffffffffffffffff1602179055506200073c6040518060400160405280600b81526020017f6574685f72696e6b656279000000000000000000000000000000000000000000815250620009c860201b60201c565b60019050620009c5565b60006200076d73a2998efd205fb9d4b4963afb70778d6354ad3a41620003d560201b60201c565b1115620008195773a2998efd205fb9d4b4963afb70778d6354ad3a41600160006101000a81548173ffffffffffffffffffffffffffffffffffffffff021916908373ffffffffffffffffffffffffffffffffffffffff1602179055506200080f6040518060400160405280600a81526020017f6574685f676f65726c6900000000000000000000000000000000000000000000815250620009c860201b60201c565b60019050620009c5565b600062000840736f485c8bf6fc43ea212e93bbf8ce046c7f1cb475620003d560201b60201c565b1115620008a657736f485c8bf6fc43ea212e93bbf8ce046c7f1cb475600160006101000a81548173ffffffffffffffffffffffffffffffffffffffff021916908373ffffffffffffffffffffffffffffffffffffffff16021790555060019050620009c5565b6000620008cd7320e12a1f859b3feae5fb2a0a32c18f5a65555bbf620003d560201b60201c565b111562000933577320e12a1f859b3feae5fb2a0a32c18f5a65555bbf600160006101000a81548173ffffffffffffffffffffffffffffffffffffffff021916908373ffffffffffffffffffffffffffffffffffffffff16021790555060019050620009c5565b60006200095a7351efaf4c8b3c9afbd5ab9f4bbc82784ab6ef8faa620003d560201b60201c565b1115620009c0577351efaf4c8b3c9afbd5ab9f4bbc82784ab6ef8faa600160006101000a81548173ffffffffffffffffffffffffffffffffffffffff021916908373ffffffffffffffffffffffffffffffffffffffff16021790555060019050620009c5565b600090505b90565b8060029080519060200190620009e0929190620009e4565b5050565b828054600181600116156101000203166002900490600052602060002090601f016020900481019282601f1062000a2757805160ff191683800117855562000a58565b8280016001018555821562000a58579182015b8281111562000a5757825182559160200191906001019062000a3a565b5b50905062000a67919062000a6b565b5090565b62000a9091905b8082111562000a8c57600081600090555060010162000a72565b5090565b90565b613b9a8062000aa36000396000f3fe60806040526004361061009c5760003560e01c80636f75faec116100645780636f75faec146103325780636f9fb98a1461033c5780638a140117146103675780638bc94ccd1461040157806399fabd84146104f6578063a7421825146105005761009c565b80630f043ec91461009e57806324600fc3146100b557806327dc297e146100cc57806338bbfa501461019e578063679aefce14610307575b005b3480156100aa57600080fd5b506100b3610551565b005b3480156100c157600080fd5b506100ca6106da565b005b3480156100d857600080fd5b5061019c600480360360408110156100ef57600080fd5b81019080803590602001909291908035906020019064010000000081111561011657600080fd5b82018360208201111561012857600080fd5b8035906020019184600183028401116401000000008311171561014a57600080fd5b91908080601f016020809104026020016040519081016040528093929190818152602001838380828437600081840152601f19601f820116905080830192505050505050509192919290505050610897565b005b3480156101aa57600080fd5b50610305600480360360608110156101c157600080fd5b8101908080359060200190929190803590602001906401000000008111156101e857600080fd5b8201836020820111156101fa57600080fd5b8035906020019184600183028401116401000000008311171561021c57600080fd5b91908080601f016020809104026020016040519081016040528093929190818152602001838380828437600081840152601f19601f8201169050808301925050505050505091929192908035906020019064010000000081111561027f57600080fd5b82018360208201111561029157600080fd5b803590602001918460018302840111640100000000831117156102b357600080fd5b91908080601f016020809104026020016040519081016040528093929190818152602001838380828437600081840152601f19601f820116905080830192505050505050509192919290505050610ac2565b005b34801561031357600080fd5b5061031c610ae5565b6040518082815260200191505060405180910390f35b61033a610aef565b005b34801561034857600080fd5b50610351610cf3565b6040518082815260200191505060405180910390f35b34801561037357600080fd5b506103ff600480360360c081101561038a57600080fd5b81019080803560ff169060200190929190803561ffff169060200190929190803561ffff169060200190929190803563ffffffff169060200190929190803563ffffffff169060200190929190803573ffffffffffffffffffffffffffffffffffffffff169060200190929190505050610cfb565b005b34801561040d57600080fd5b506104506004803603602081101561042457600080fd5b81019080803573ffffffffffffffffffffffffffffffffffffffff16906020019092919050505061105d565b604051808a60ff1660ff1681526020018960ff1660ff1681526020018861ffff1661ffff1681526020018761ffff1661ffff1681526020018663ffffffff1663ffffffff1681526020018567ffffffffffffffff1667ffffffffffffffff1681526020018467ffffffffffffffff1667ffffffffffffffff1681526020018315151515815260200182151515158152602001995050505050505050505060405180910390f35b6104fe611248565b005b34801561050c57600080fd5b5061054f6004803603602081101561052357600080fd5b81019080803573ffffffffffffffffffffffffffffffffffffffff169060200190929190505050611402565b005b6000600c60003373ffffffffffffffffffffffffffffffffffffffff1673ffffffffffffffffffffffffffffffffffffffff168152602001908152602001600020905080600001601b9054906101000a900460ff166105fb576040517f08c379a0000000000000000000000000000000000000000000000000000000008152600401808060200182810382526033815260200180613ad26033913960400191505060405180910390fd5b60008160000160049054906101000a900461ffff1661ffff161161066a576040517f08c379a00000000000000000000000000000000000000000000000000000000081526004018080602001828103825260268152602001806139f36026913960400191505060405180910390fd5b33600660006101000a81548173ffffffffffffffffffffffffffffffffffffffff021916908373ffffffffffffffffffffffffffffffffffffffff1602179055506003600a60006101000a81548160ff021916908360048111156106ca57fe5b02179055506106d76116ae565b50565b600560009054906101000a900473ffffffffffffffffffffffffffffffffffffffff1673ffffffffffffffffffffffffffffffffffffffff163373ffffffffffffffffffffffffffffffffffffffff1614610780576040517f08c379a00000000000000000000000000000000000000000000000000000000081526004018080602001828103825260268152602001806139936026913960400191505060405180910390fd5b6000600954116107db576040517f08c379a00000000000000000000000000000000000000000000000000000000081526004018080602001828103825260248152602001806138096024913960400191505060405180910390fd5b600060095490506000600981905550600560009054906101000a900473ffffffffffffffffffffffffffffffffffffffff1673ffffffffffffffffffffffffffffffffffffffff166108fc829081150290604051600060405180830381858888f19350505050158015610852573d6000803e3d6000fd5b507f85470dff43902d75670eac38df826d0456b2ba2939a2e8662959a8143013554d81600954604051808381526020018281526020019250505060405180910390a150565b600b600083815260200190815260200160002060009054906101000a900460ff1661090d576040517f08c379a000000000000000000000000000000000000000000000000000000000815260040180806020018281038252604b8152602001806138fe604b913960600191505060405180910390fd5b6109156117cd565b73ffffffffffffffffffffffffffffffffffffffff163373ffffffffffffffffffffffffffffffffffffffff1614610998576040517f08c379a000000000000000000000000000000000000000000000000000000000815260040180806020018281038252603a8152602001806139b9603a913960400191505060405180910390fd5b6000600b600084815260200190815260200160002060006101000a81548160ff0219169083151502179055506109cd81611aea565b600781905550600060048111156109e057fe5b600a60009054906101000a900460ff1660048111156109fb57fe5b1415610a0e57610a09611afe565b610abe565b60016004811115610a1b57fe5b600a60009054906101000a900460ff166004811115610a3657fe5b1415610a4957610a44611d74565b610abd565b60026004811115610a5657fe5b600a60009054906101000a900460ff166004811115610a7157fe5b1415610a8457610a7f612149565b610abc565b60036004811115610a9157fe5b600a60009054906101000a900460ff166004811115610aac57fe5b1415610abb57610aba612335565b5b5b5b5b5050565b6000801b600360008060001b815260200190815260200160002081905550505050565b6000600754905090565b6000600c60003373ffffffffffffffffffffffffffffffffffffffff1673ffffffffffffffffffffffffffffffffffffffff168152602001908152602001600020905080600001601a9054906101000a900460ff16610b99576040517f08c379a0000000000000000000000000000000000000000000000000000000008152600401808060200182810382526037815260200180613b2f6037913960400191505060405180910390fd5b80600001601b9054906101000a900460ff1615610c01576040517f08c379a00000000000000000000000000000000000000000000000000000000081526004018080602001828103825260218152602001806138bc6021913960400191505060405180910390fd5b4281600001600a9054906101000a900467ffffffffffffffff1667ffffffffffffffff161015610c7c576040517f08c379a000000000000000000000000000000000000000000000000000000000815260040180806020018281038252602a815260200180613b05602a913960400191505060405180910390fd5b33600660006101000a81548173ffffffffffffffffffffffffffffffffffffffff021916908373ffffffffffffffffffffffffffffffffffffffff160217905550346008819055506001600a60006101000a81548160ff02191690836004811115610ce357fe5b0217905550610cf06116ae565b50565b600047905090565b600560009054906101000a900473ffffffffffffffffffffffffffffffffffffffff1673ffffffffffffffffffffffffffffffffffffffff163373ffffffffffffffffffffffffffffffffffffffff1614610da1576040517f08c379a00000000000000000000000000000000000000000000000000000000081526004018080602001828103825260268152602001806139936026913960400191505060405180910390fd5b6000610dbc8363ffffffff164261252190919063ffffffff16565b90506040518061012001604052808860ff168152602001600060ff1681526020018761ffff1681526020018661ffff1681526020018563ffffffff168152602001600067ffffffffffffffff1681526020018267ffffffffffffffff16815260200160001515815260200160001515815250600c60008473ffffffffffffffffffffffffffffffffffffffff1673ffffffffffffffffffffffffffffffffffffffff16815260200190815260200160002060008201518160000160006101000a81548160ff021916908360ff16021790555060208201518160000160016101000a81548160ff021916908360ff16021790555060408201518160000160026101000a81548161ffff021916908361ffff16021790555060608201518160000160046101000a81548161ffff021916908361ffff16021790555060808201518160000160066101000a81548163ffffffff021916908363ffffffff16021790555060a082015181600001600a6101000a81548167ffffffffffffffff021916908367ffffffffffffffff16021790555060c08201518160000160126101000a81548167ffffffffffffffff021916908367ffffffffffffffff16021790555060e082015181600001601a6101000a81548160ff02191690831515021790555061010082015181600001601b6101000a81548160ff0219169083151502179055509050507fdd591f3b100a9db969ea95d0a578c9818397e476cf2ea0d0a4dc84551c9c2872876000888888600080604051808860ff1660ff1681526020018760ff1681526020018661ffff1661ffff1681526020018561ffff1661ffff1681526020018463ffffffff1663ffffffff168152602001831515151581526020018215151515815260200197505050505050505060405180910390a150505050505050565b60008060008060008060008060006110736136b6565b600c60008c73ffffffffffffffffffffffffffffffffffffffff1673ffffffffffffffffffffffffffffffffffffffff168152602001908152602001600020604051806101200160405290816000820160009054906101000a900460ff1660ff1660ff1681526020016000820160019054906101000a900460ff1660ff1660ff1681526020016000820160029054906101000a900461ffff1661ffff1661ffff1681526020016000820160049054906101000a900461ffff1661ffff1661ffff1681526020016000820160069054906101000a900463ffffffff1663ffffffff1663ffffffff16815260200160008201600a9054906101000a900467ffffffffffffffff1667ffffffffffffffff1667ffffffffffffffff1681526020016000820160129054906101000a900467ffffffffffffffff1667ffffffffffffffff1667ffffffffffffffff16815260200160008201601a9054906101000a900460ff1615151515815260200160008201601b9054906101000a900460ff1615151515815250509050806000015181602001518260400151836060015184608001518560a001518660c001518760e00151886101000151995099509950995099509950995099509950509193959799909294969850565b6000600c60003373ffffffffffffffffffffffffffffffffffffffff1673ffffffffffffffffffffffffffffffffffffffff168152602001908152602001600020905080600001601a9054906101000a900460ff1615611310576040517f08c379a000000000000000000000000000000000000000000000000000000000815260040180806020018281038252601e8152602001807f4c65617365206465706f73697420697320616c726561647920706169642e000081525060200191505060405180910390fd5b428160000160129054906101000a900467ffffffffffffffff1667ffffffffffffffff16101561138b576040517f08c379a000000000000000000000000000000000000000000000000000000000815260040180806020018281038252603281526020018061382d6032913960400191505060405180910390fd5b33600660006101000a81548173ffffffffffffffffffffffffffffffffffffffff021916908373ffffffffffffffffffffffffffffffffffffffff160217905550346008819055506000600a60006101000a81548160ff021916908360048111156113f257fe5b02179055506113ff6116ae565b50565b600560009054906101000a900473ffffffffffffffffffffffffffffffffffffffff1673ffffffffffffffffffffffffffffffffffffffff163373ffffffffffffffffffffffffffffffffffffffff16146114a8576040517f08c379a00000000000000000000000000000000000000000000000000000000081526004018080602001828103825260268152602001806139936026913960400191505060405180910390fd5b6000600c60008373ffffffffffffffffffffffffffffffffffffffff1673ffffffffffffffffffffffffffffffffffffffff168152602001908152602001600020905080600001601b9054906101000a900460ff1615611553576040517f08c379a00000000000000000000000000000000000000000000000000000000081526004018080602001828103825260358152602001806137d46035913960400191505060405180910390fd5b4281600001600a9054906101000a900467ffffffffffffffff1667ffffffffffffffff1611156115ce576040517f08c379a000000000000000000000000000000000000000000000000000000000815260040180806020018281038252604a815260200180613949604a913960600191505060405180910390fd5b60008160000160049054906101000a900461ffff1661ffff161161163d576040517f08c379a00000000000000000000000000000000000000000000000000000000081526004018080602001828103825260268152602001806139f36026913960400191505060405180910390fd5b81600660006101000a81548173ffffffffffffffffffffffffffffffffffffffff021916908373ffffffffffffffffffffffffffffffffffffffff1602179055506002600a60006101000a81548160ff0219169083600481111561169d57fe5b02179055506116aa6116ae565b5050565b476116ed6040518060400160405280600381526020017f55524c00000000000000000000000000000000000000000000000000000000008152506125a9565b10611743576040517f08c379a000000000000000000000000000000000000000000000000000000000815260040180806020018281038252602d815260200180613aa5602d913960400191505060405180910390fd5b600061179c6040518060400160405280600381526020017f55524c0000000000000000000000000000000000000000000000000000000000815250604051806060016040528060408152602001613a656040913961293a565b90506001600b600083815260200190815260200160002060006101000a81548160ff02191690831515021790555050565b60008073ffffffffffffffffffffffffffffffffffffffff16600160009054906101000a900473ffffffffffffffffffffffffffffffffffffffff1673ffffffffffffffffffffffffffffffffffffffff16148061185557506000611853600160009054906101000a900473ffffffffffffffffffffffffffffffffffffffff16612e80565b145b15611866576118646000612e8b565b505b600160009054906101000a900473ffffffffffffffffffffffffffffffffffffffff1673ffffffffffffffffffffffffffffffffffffffff166338cc48316040518163ffffffff1660e01b8152600401602060405180830381600087803b1580156118d057600080fd5b505af11580156118e4573d6000803e3d6000fd5b505050506040513d60208110156118fa57600080fd5b810190808051906020019092919050505073ffffffffffffffffffffffffffffffffffffffff166000809054906101000a900473ffffffffffffffffffffffffffffffffffffffff1673ffffffffffffffffffffffffffffffffffffffff1614611a4357600160009054906101000a900473ffffffffffffffffffffffffffffffffffffffff1673ffffffffffffffffffffffffffffffffffffffff166338cc48316040518163ffffffff1660e01b8152600401602060405180830381600087803b1580156119c857600080fd5b505af11580156119dc573d6000803e3d6000fd5b505050506040513d60208110156119f257600080fd5b81019080805190602001909291905050506000806101000a81548173ffffffffffffffffffffffffffffffffffffffff021916908373ffffffffffffffffffffffffffffffffffffffff1602179055505b6000809054906101000a900473ffffffffffffffffffffffffffffffffffffffff1673ffffffffffffffffffffffffffffffffffffffff1663c281d19e6040518163ffffffff1660e01b815260040160206040518083038186803b158015611aaa57600080fd5b505afa158015611abe573d6000803e3d6000fd5b505050506040513d6020811015611ad457600080fd5b8101908080519060200190929190505050905090565b6000611af7826000612e9c565b9050919050565b6004600a60006101000a81548160ff02191690836004811115611b1d57fe5b02179055506000600c6000600660009054906101000a900473ffffffffffffffffffffffffffffffffffffffff1673ffffffffffffffffffffffffffffffffffffffff1673ffffffffffffffffffffffffffffffffffffffff16815260200190815260200160002090506000611bba670de0b6b3a7640000611bac600754600854612faf90919063ffffffff16565b61303590919063ffffffff16565b905060058260000160049054906101000a900461ffff160361ffff168110158015611bfe575060058260000160049054906101000a900461ffff160161ffff168111155b611c53576040517f08c379a000000000000000000000000000000000000000000000000000000000815260040180806020018281038252604c815260200180613a19604c913960600191505060405180910390fd5b600182600001601a6101000a81548160ff02191690831515021790555060008260000160126101000a81548167ffffffffffffffff021916908367ffffffffffffffff1602179055508160000160069054906101000a900463ffffffff1663ffffffff16420182600001600a6101000a81548167ffffffffffffffff021916908367ffffffffffffffff1602179055507f6d17d5f1a7013c2194a97bd9fc638e199a20709d8289df0d19c5fe48e9f8e234600660009054906101000a900473ffffffffffffffffffffffffffffffffffffffff1682604051808373ffffffffffffffffffffffffffffffffffffffff1673ffffffffffffffffffffffffffffffffffffffff1681526020018281526020019250505060405180910390a15050565b6004600a60006101000a81548160ff02191690836004811115611d9357fe5b02179055506000600c6000600660009054906101000a900473ffffffffffffffffffffffffffffffffffffffff1673ffffffffffffffffffffffffffffffffffffffff1673ffffffffffffffffffffffffffffffffffffffff16815260200190815260200160002090506000611e30670de0b6b3a7640000611e22600754600854612faf90919063ffffffff16565b61303590919063ffffffff16565b905060058260000160029054906101000a900461ffff160361ffff16811015611ea4576040517f08c379a000000000000000000000000000000000000000000000000000000000815260040180806020018281038252605d81526020018061385f605d913960600191505060405180910390fd5b6000611f08611ee58460000160029054906101000a900461ffff1661ffff16611ed7600a8661252190919063ffffffff16565b61303590919063ffffffff16565b8460000160019054906101000a900460ff1660ff1661252190919063ffffffff16565b9050808360000160016101000a81548160ff021916908360ff160217905550611f3e60085460095461252190919063ffffffff16565b6009819055508260000160009054906101000a900460ff1660ff1681141561205757600183600001601b6101000a81548160ff021916908315150217905550600083600001600a6101000a81548167ffffffffffffffff021916908367ffffffffffffffff1602179055507f30402b861d287c2615049e78d76e20fa899ef60b686e5ecd5b99916fa7940cca600660009054906101000a900473ffffffffffffffffffffffffffffffffffffffff168460000160009054906101000a900460ff1683604051808473ffffffffffffffffffffffffffffffffffffffff1673ffffffffffffffffffffffffffffffffffffffff1681526020018360ff168152602001828152602001935050505060405180910390a1612144565b8260000160069054906101000a900463ffffffff1663ffffffff1683600001600a9054906101000a900467ffffffffffffffff160183600001600a6101000a81548167ffffffffffffffff021916908367ffffffffffffffff1602179055507ff0e2145f379bbedeedc5268c8fa07c4a8102f172726d393b223aeebd259681f5600660009054906101000a900473ffffffffffffffffffffffffffffffffffffffff1683604051808373ffffffffffffffffffffffffffffffffffffffff1673ffffffffffffffffffffffffffffffffffffffff1681526020018281526020019250505060405180910390a15b505050565b6004600a60006101000a81548160ff0219169083600481111561216857fe5b02179055506000600c6000600660009054906101000a900473ffffffffffffffffffffffffffffffffffffffff1673ffffffffffffffffffffffffffffffffffffffff1673ffffffffffffffffffffffffffffffffffffffff168152602001908152602001600020905060008160000160049054906101000a900461ffff1661ffff16905060008260000160046101000a81548161ffff021916908361ffff160217905550600560009054906101000a900473ffffffffffffffffffffffffffffffffffffffff1673ffffffffffffffffffffffffffffffffffffffff166108fc612278670de0b6b3a764000061226a6007548661303590919063ffffffff16565b612faf90919063ffffffff16565b9081150290604051600060405180830381858888f193505050501580156122a3573d6000803e3d6000fd5b507fe1331afab13483849ace5d3f6425d46fb84ec297adee20f5665115ff188c0a42600660009054906101000a900473ffffffffffffffffffffffffffffffffffffffff1682604051808373ffffffffffffffffffffffffffffffffffffffff1673ffffffffffffffffffffffffffffffffffffffff1681526020018281526020019250505060405180910390a15050565b6004600a60006101000a81548160ff0219169083600481111561235457fe5b02179055506000600c6000600660009054906101000a900473ffffffffffffffffffffffffffffffffffffffff1673ffffffffffffffffffffffffffffffffffffffff1673ffffffffffffffffffffffffffffffffffffffff168152602001908152602001600020905060008160000160049054906101000a900461ffff1661ffff16905060008260000160046101000a81548161ffff021916908361ffff160217905550600660009054906101000a900473ffffffffffffffffffffffffffffffffffffffff1673ffffffffffffffffffffffffffffffffffffffff166108fc612464670de0b6b3a76400006124566007548661303590919063ffffffff16565b612faf90919063ffffffff16565b9081150290604051600060405180830381858888f1935050505015801561248f573d6000803e3d6000fd5b507fa4e3e5f6b01aebb8f8a8d04c8da2c53a1d88cfacd1a475ad9b0b8e87f88a1b9b600660009054906101000a900473ffffffffffffffffffffffffffffffffffffffff1682604051808373ffffffffffffffffffffffffffffffffffffffff1673ffffffffffffffffffffffffffffffffffffffff1681526020018281526020019250505060405180910390a15050565b60008082840190508381101561259f576040517f08c379a000000000000000000000000000000000000000000000000000000000815260040180806020018281038252601b8152602001807f536166654d6174683a206164646974696f6e206f766572666c6f77000000000081525060200191505060405180910390fd5b8091505092915050565b60008073ffffffffffffffffffffffffffffffffffffffff16600160009054906101000a900473ffffffffffffffffffffffffffffffffffffffff1673ffffffffffffffffffffffffffffffffffffffff1614806126315750600061262f600160009054906101000a900473ffffffffffffffffffffffffffffffffffffffff16612e80565b145b15612642576126406000612e8b565b505b600160009054906101000a900473ffffffffffffffffffffffffffffffffffffffff1673ffffffffffffffffffffffffffffffffffffffff166338cc48316040518163ffffffff1660e01b8152600401602060405180830381600087803b1580156126ac57600080fd5b505af11580156126c0573d6000803e3d6000fd5b505050506040513d60208110156126d657600080fd5b810190808051906020019092919050505073ffffffffffffffffffffffffffffffffffffffff166000809054906101000a900473ffffffffffffffffffffffffffffffffffffffff1673ffffffffffffffffffffffffffffffffffffffff161461281f57600160009054906101000a900473ffffffffffffffffffffffffffffffffffffffff1673ffffffffffffffffffffffffffffffffffffffff166338cc48316040518163ffffffff1660e01b8152600401602060405180830381600087803b1580156127a457600080fd5b505af11580156127b8573d6000803e3d6000fd5b505050506040513d60208110156127ce57600080fd5b81019080805190602001909291905050506000806101000a81548173ffffffffffffffffffffffffffffffffffffffff021916908373ffffffffffffffffffffffffffffffffffffffff1602179055505b6000809054906101000a900473ffffffffffffffffffffffffffffffffffffffff1673ffffffffffffffffffffffffffffffffffffffff1663524f3889836040518263ffffffff1660e01b81526004018080602001828103825283818151815260200191508051906020019080838360005b838110156128ac578082015181840152602081019050612891565b50505050905090810190601f1680156128d95780820380516001836020036101000a031916815260200191505b5092505050602060405180830381600087803b1580156128f857600080fd5b505af115801561290c573d6000803e3d6000fd5b505050506040513d602081101561292257600080fd5b81019080805190602001909291905050509050919050565b60008073ffffffffffffffffffffffffffffffffffffffff16600160009054906101000a900473ffffffffffffffffffffffffffffffffffffffff1673ffffffffffffffffffffffffffffffffffffffff1614806129c2575060006129c0600160009054906101000a900473ffffffffffffffffffffffffffffffffffffffff16612e80565b145b156129d3576129d16000612e8b565b505b600160009054906101000a900473ffffffffffffffffffffffffffffffffffffffff1673ffffffffffffffffffffffffffffffffffffffff166338cc48316040518163ffffffff1660e01b8152600401602060405180830381600087803b158015612a3d57600080fd5b505af1158015612a51573d6000803e3d6000fd5b505050506040513d6020811015612a6757600080fd5b810190808051906020019092919050505073ffffffffffffffffffffffffffffffffffffffff166000809054906101000a900473ffffffffffffffffffffffffffffffffffffffff1673ffffffffffffffffffffffffffffffffffffffff1614612bb057600160009054906101000a900473ffffffffffffffffffffffffffffffffffffffff1673ffffffffffffffffffffffffffffffffffffffff166338cc48316040518163ffffffff1660e01b8152600401602060405180830381600087803b158015612b3557600080fd5b505af1158015612b49573d6000803e3d6000fd5b505050506040513d6020811015612b5f57600080fd5b81019080805190602001909291905050506000806101000a81548173ffffffffffffffffffffffffffffffffffffffff021916908373ffffffffffffffffffffffffffffffffffffffff1602179055505b60008060009054906101000a900473ffffffffffffffffffffffffffffffffffffffff1673ffffffffffffffffffffffffffffffffffffffff1663524f3889856040518263ffffffff1660e01b81526004018080602001828103825283818151815260200191508051906020019080838360005b83811015612c3f578082015181840152602081019050612c24565b50505050905090810190601f168015612c6c5780820380516001836020036101000a031916815260200191505b5092505050602060405180830381600087803b158015612c8b57600080fd5b505af1158015612c9f573d6000803e3d6000fd5b505050506040513d6020811015612cb557600080fd5b8101908080519060200190929190505050905062030d403a02670de0b6b3a764000001811115612ceb576000801b915050612e7a565b6000809054906101000a900473ffffffffffffffffffffffffffffffffffffffff1673ffffffffffffffffffffffffffffffffffffffff1663adf59f9982600087876040518563ffffffff1660e01b8152600401808481526020018060200180602001838103835285818151815260200191508051906020019080838360005b83811015612d86578082015181840152602081019050612d6b565b50505050905090810190601f168015612db35780820380516001836020036101000a031916815260200191505b50838103825284818151815260200191508051906020019080838360005b83811015612dec578082015181840152602081019050612dd1565b50505050905090810190601f168015612e195780820380516001836020036101000a031916815260200191505b50955050505050506020604051808303818588803b158015612e3a57600080fd5b505af1158015612e4e573d6000803e3d6000fd5b50505050506040513d6020811015612e6557600080fd5b81019080805190602001909291905050509150505b92915050565b6000813b9050919050565b6000612e9561307f565b9050919050565b600060608390506000809050600080905060008090505b8351811015612f90576030848281518110612eca57fe5b602001015160f81c60f81b60f81c60ff1610158015612f0657506039848281518110612ef257fe5b602001015160f81c60f81b60f81c60ff1611155b15612f58578115612f29576000861415612f1f57612f90565b8580600190039650505b600a830292506030848281518110612f3d57fe5b602001015160f81c60f81b60f81c60ff160383019250612f83565b602e848281518110612f6657fe5b602001015160f81c60f81b60f81c60ff161415612f8257600191505b5b8080600101915050612eb3565b506000851115612fa35784600a0a820291505b81935050505092915050565b600080831415612fc2576000905061302f565b6000828402905082848281612fd357fe5b041461302a576040517f08c379a00000000000000000000000000000000000000000000000000000000081526004018080602001828103825260218152602001806138dd6021913960400191505060405180910390fd5b809150505b92915050565b600061307783836040518060400160405280601a81526020017f536166654d6174683a206469766973696f6e206279207a65726f0000000000008152506135d6565b905092915050565b60008061309f731d3b2638a7cc9f2cb3d298a3da7a90b67e5506ed612e80565b111561314157731d3b2638a7cc9f2cb3d298a3da7a90b67e5506ed600160006101000a81548173ffffffffffffffffffffffffffffffffffffffff021916908373ffffffffffffffffffffffffffffffffffffffff1602179055506131386040518060400160405280600b81526020017f6574685f6d61696e6e657400000000000000000000000000000000000000000081525061369c565b600190506135d3565b600061316073c03a2615d5efaf5f49f60b7bb6583eaec212fdf1612e80565b11156132025773c03a2615d5efaf5f49f60b7bb6583eaec212fdf1600160006101000a81548173ffffffffffffffffffffffffffffffffffffffff021916908373ffffffffffffffffffffffffffffffffffffffff1602179055506131f96040518060400160405280600c81526020017f6574685f726f707374656e33000000000000000000000000000000000000000081525061369c565b600190506135d3565b600061322173b7a07bcf2ba2f2703b24c0691b5278999c59ac7e612e80565b11156132c35773b7a07bcf2ba2f2703b24c0691b5278999c59ac7e600160006101000a81548173ffffffffffffffffffffffffffffffffffffffff021916908373ffffffffffffffffffffffffffffffffffffffff1602179055506132ba6040518060400160405280600981526020017f6574685f6b6f76616e000000000000000000000000000000000000000000000081525061369c565b600190506135d3565b60006132e273146500cfd35b22e4a392fe0adc06de1a1368ed48612e80565b11156133845773146500cfd35b22e4a392fe0adc06de1a1368ed48600160006101000a81548173ffffffffffffffffffffffffffffffffffffffff021916908373ffffffffffffffffffffffffffffffffffffffff16021790555061337b6040518060400160405280600b81526020017f6574685f72696e6b65627900000000000000000000000000000000000000000081525061369c565b600190506135d3565b60006133a373a2998efd205fb9d4b4963afb70778d6354ad3a41612e80565b11156134455773a2998efd205fb9d4b4963afb70778d6354ad3a41600160006101000a81548173ffffffffffffffffffffffffffffffffffffffff021916908373ffffffffffffffffffffffffffffffffffffffff16021790555061343c6040518060400160405280600a81526020017f6574685f676f65726c690000000000000000000000000000000000000000000081525061369c565b600190506135d3565b6000613464736f485c8bf6fc43ea212e93bbf8ce046c7f1cb475612e80565b11156134c857736f485c8bf6fc43ea212e93bbf8ce046c7f1cb475600160006101000a81548173ffffffffffffffffffffffffffffffffffffffff021916908373ffffffffffffffffffffffffffffffffffffffff160217905550600190506135d3565b60006134e77320e12a1f859b3feae5fb2a0a32c18f5a65555bbf612e80565b111561354b577320e12a1f859b3feae5fb2a0a32c18f5a65555bbf600160006101000a81548173ffffffffffffffffffffffffffffffffffffffff021916908373ffffffffffffffffffffffffffffffffffffffff160217905550600190506135d3565b600061356a7351efaf4c8b3c9afbd5ab9f4bbc82784ab6ef8faa612e80565b11156135ce577351efaf4c8b3c9afbd5ab9f4bbc82784ab6ef8faa600160006101000a81548173ffffffffffffffffffffffffffffffffffffffff021916908373ffffffffffffffffffffffffffffffffffffffff160217905550600190506135d3565b600090505b90565b60008083118290613682576040517f08c379a00000000000000000000000000000000000000000000000000000000081526004018080602001828103825283818151815260200191508051906020019080838360005b8381101561364757808201518184015260208101905061362c565b50505050905090810190601f1680156136745780820380516001836020036101000a031916815260200191505b509250505060405180910390fd5b50600083858161368e57fe5b049050809150509392505050565b80600290805190602001906136b292919061372e565b5050565b604051806101200160405280600060ff168152602001600060ff168152602001600061ffff168152602001600061ffff168152602001600063ffffffff168152602001600067ffffffffffffffff168152602001600067ffffffffffffffff1681526020016000151581526020016000151581525090565b828054600181600116156101000203166002900490600052602060002090601f016020900481019282601f1061376f57805160ff191683800117855561379d565b8280016001018555821561379d579182015b8281111561379c578251825591602001919060010190613781565b5b5090506137aa91906137ae565b5090565b6137d091905b808211156137cc5760008160009055506001016137b4565b5090565b9056fe43616e6e6f7420636f6c6c656374206c65617365206465706f736974206966206c6561736520697320616c726561647920706169644c656173652062616c616e6365206d7573742062652067726561746572207468616e20304c65617365206465706f736974207061796d656e74206d7573742066697420696e746f207061796d656e742077696e646f774c65617365207061796d656e74206d7573742062652067726561746572207468616e206f7220657175616c20746f20746865206d6f6e74686c7920616d6f756e7420776974682061206d6178696d756d206f6666736574206f662024354c656173652068617320616c7265616479206265656e2066756c6c792070616964536166654d6174683a206d756c7469706c69636174696f6e206f766572666c6f7750726f7661626c652071756572792049447320646f206e6f74206d617463682c206e6f2076616c69642063616c6c20776173206d61646520746f2070726f7661626c655f717565727928294c65617365207061796d656e74206d757374206265206f7665726475652070617374207061796d656e742077696e646f7720746f20636f6c6c656374206c65617365206465706f7369744d75737420626520746865206c616e646c6f726420746f206372656174652061206c6561736543616c6c696e67206164647265737320646f6573206d61746368207573696e6750726f7661626c6520636f6e74726163742061646472657373204c65617365206465706f7369742068617320616c7265616479206265656e2072656d6f7665644465706f736974207061796d656e74206d75737420657175616c20746f20746865206465706f73697420616d6f756e7420776974682061206d6178696d756d206f6666736574206f662024356a736f6e2868747470733a2f2f6170692e70726f2e636f696e626173652e636f6d2f70726f64756374732f4554482d5553442f7469636b6572292e70726963654e6f7420656e6f75676820457468657220696e20636f6e74726163742c20706c6561736520616464206d6f72654c65617365206d7573742062652066756c6c79207061696420746f2074616b65206261636b206c65617365206465706f7369744c65617365207061796d656e74206d7573742066697420696e746f207061796d656e742077696e646f774c65617365206465706f736974206d7573742062652070616964206265666f7265206d616b696e67206c65617365207061796d656e7473a265627a7a7231582029cf9d256618373cae485a11acf362f1dda44c94e5ff4b5997adb6e8478af27664736f6c63430005100032",
  "source": "pragma solidity ^0.5.16;\r\nimport \"./SafeMath.sol\";\r\nimport \"./provableAPI.sol\";\r\n\r\ncontract LeaseGenerator is usingProvable {\r\n\r\n    using SafeMath for uint;\r\n\r\n    address payable landlordAddress;\r\n    address payable tenantAddress;\r\n\r\n    uint ETHUSD;\r\n    uint tenantPayment;\r\n    uint leaseBalanceWei;\r\n\r\n    enum State {\r\n        payingLeaseDeposit,\r\n        payingLease,\r\n        collectingLeaseDeposit,\r\n        reclaimingLeaseDeposit,\r\n        idle\r\n    }\r\n\r\n    State workingState;\r\n\r\n    struct Lease {\r\n        uint8 numberOfMonths;\r\n        uint8 monthsPaid;\r\n        uint16 monthlyAmountUsd;\r\n        uint16 leaseDepositUsd;\r\n        uint32 leasePaymentWindowSeconds;\r\n        uint64 leasePaymentWindowEnd;\r\n        uint64 depositPaymentWindowEnd;\r\n        bool leaseDepositPaid;\r\n        bool leaseFullyPaid;\r\n    }\r\n\r\n    mapping (bytes32 => bool) validIds;\r\n    mapping (address => Lease) tenantLease;\r\n\r\n    modifier onlyLandlord() {\r\n        require(msg.sender == landlordAddress, \"Must be the landlord to create a lease\");\r\n        _;\r\n    }\r\n\r\n    event leaseCreated(\r\n        uint8 numberOfMonths,\r\n        uint8 monthsPaid,\r\n        uint16 monthlyAmountUsd,\r\n        uint16 leaseDepositUsd,\r\n        uint32 leasePaymentWindowSeconds,\r\n        bool leaseDepositPaid,\r\n        bool leaseFullyPaid\r\n    );\r\n\r\n    event leaseDepositPaid(\r\n        address tenantAddress,\r\n        uint amountSentUsd\r\n    );\r\n\r\n    event leasePaymentPaid(\r\n        address tenantAddress,\r\n        uint amountSentUsd\r\n    );\r\n\r\n    event leaseDepositCollected(\r\n        address tenantAddress,\r\n        uint amountCollected\r\n    );\r\n\r\n    event leaseDepositReclaimed(\r\n        address tenantAddress,\r\n        uint amountReclaimed\r\n    );\r\n\r\n    event leaseFullyPaid(\r\n        address tenantAddress,\r\n        uint numberOfmonths,\r\n        uint monthsPaid\r\n    );\r\n\r\n    event fundsWithdrawn(\r\n        uint transferAmount,\r\n        uint leaseBalanceWei\r\n    );\r\n\r\n    constructor () public payable {\r\n            landlordAddress = msg.sender;\r\n            provable_setCustomGasPrice(100000000000);\r\n            //OAR = OracleAddrResolverI(0x6f485C8BF6fc43eA212E93BBF8ce046C7f1cb475);\r\n            //OAR = OraclizeAddrResolverI(0x6f485C8BF6fc43eA212E93BBF8ce046C7f1cb475);\r\n            OAR = OracleAddrResolverI(0xD08FB39f871BF7d21e3189BF1C3802A7C150554d);\r\n    }\r\n\r\n    function fetchUsdRate() internal {\r\n        require(provable_getPrice(\"URL\") < address(this).balance, \"Not enough Ether in contract, please add more\");\r\n        bytes32 queryId = provable_query(\"URL\", \"json(https://api.pro.coinbase.com/products/ETH-USD/ticker).price\");\r\n        validIds[queryId] = true;\r\n    }\r\n\r\n    function __callback(bytes32 myId, string memory result) public {\r\n        require(validIds[myId], \"Provable query IDs do not match, no valid call was made to provable_query()\");\r\n        require(msg.sender == provable_cbAddress(), \"Calling address does match usingProvable contract address \");\r\n        validIds[myId] = false;\r\n        ETHUSD = parseInt(result);\r\n\r\n        if (workingState == State.payingLeaseDeposit) {\r\n            _payLeaseDeposit();\r\n        } else if (workingState == State.payingLease) {\r\n            _payLease();\r\n        } else if (workingState == State.collectingLeaseDeposit) {\r\n            _collectLeaseDeposit();\r\n        } else if (workingState == State.reclaimingLeaseDeposit) {\r\n            _reclaimLeaseDeposit();\r\n        }\r\n    }\r\n\r\n    function createNewLease(\r\n            uint8 numberOfMonths,\r\n            uint16 monthlyAmountUsd,\r\n            uint16 leaseDepositUsd,\r\n            uint32 leasePaymentWindowSeconds,\r\n            uint32 depositPaymentWindowSeconds,\r\n            address payable tenantAddr\r\n        ) public onlyLandlord {\r\n\r\n        uint64 depositPaymentWindowEnd = uint64(now.add(depositPaymentWindowSeconds));\r\n\r\n        tenantLease[tenantAddr] = Lease(\r\n            numberOfMonths,\r\n            0,\r\n            monthlyAmountUsd,\r\n            leaseDepositUsd,\r\n            leasePaymentWindowSeconds,\r\n            0,\r\n            depositPaymentWindowEnd,\r\n            false,\r\n            false\r\n        );\r\n\r\n        emit leaseCreated(\r\n            numberOfMonths,\r\n            0,\r\n            monthlyAmountUsd,\r\n            leaseDepositUsd,\r\n            leasePaymentWindowSeconds,\r\n            false,\r\n            false\r\n        );\r\n    }\r\n\r\n    function payLeaseDeposit() public payable {\r\n        Lease storage lease = tenantLease[msg.sender];\r\n        require(!lease.leaseDepositPaid, \"Lease deposit is already paid.\");\r\n        require(lease.depositPaymentWindowEnd >= now, \"Lease deposit payment must fit into payment window\");\r\n\r\n        tenantAddress = msg.sender;\r\n        tenantPayment = msg.value;\r\n        workingState = State.payingLeaseDeposit;\r\n        fetchUsdRate();\r\n    }\r\n\r\n    function _payLeaseDeposit() internal {\r\n        workingState = State.idle;\r\n        Lease storage lease = tenantLease[tenantAddress];\r\n        uint amountSentUsd = tenantPayment.mul(ETHUSD).div(1e18);\r\n\r\n        require(\r\n            amountSentUsd >= lease.leaseDepositUsd - 5 &&\r\n            amountSentUsd <= lease.leaseDepositUsd + 5,\r\n            \"Deposit payment must equal to the deposit amount with a maximum offset of $5\");\r\n\r\n        lease.leaseDepositPaid = true;\r\n        lease.depositPaymentWindowEnd = 0;\r\n        lease.leasePaymentWindowEnd = uint64(now + lease.leasePaymentWindowSeconds);\r\n\r\n        emit leaseDepositPaid(\r\n            tenantAddress,\r\n            amountSentUsd\r\n        );\r\n    }\r\n\r\n    function payLease() public payable {\r\n        Lease storage lease = tenantLease[msg.sender];\r\n        require(lease.leaseDepositPaid, \"Lease deposit must be paid before making lease payments\");\r\n        require(!lease.leaseFullyPaid, \"Lease has already been fully paid\");\r\n        require(lease.leasePaymentWindowEnd >= now, \"Lease payment must fit into payment window\");\r\n\r\n        tenantAddress = msg.sender;\r\n        tenantPayment = msg.value;\r\n        workingState = State.payingLease;\r\n        fetchUsdRate();\r\n    }\r\n\r\n    function _payLease() internal {\r\n        workingState = State.idle;\r\n        Lease storage lease = tenantLease[tenantAddress];\r\n        uint amountSentUsd = tenantPayment.mul(ETHUSD).div(1e18);\r\n\r\n        require(\r\n            amountSentUsd >= lease.monthlyAmountUsd - 5,\r\n            \"Lease payment must be greater than or equal to the monthly amount with a maximum offset of $5\");\r\n\r\n        uint monthsPaid = uint256(lease.monthsPaid).add(amountSentUsd.add(10).div(uint256(lease.monthlyAmountUsd)));\r\n        lease.monthsPaid = uint8(monthsPaid);\r\n        leaseBalanceWei = leaseBalanceWei.add(tenantPayment);\r\n\r\n        if (monthsPaid == lease.numberOfMonths) {\r\n            lease.leaseFullyPaid = true;\r\n            lease.leasePaymentWindowEnd = 0;\r\n\r\n            emit leaseFullyPaid(\r\n                tenantAddress,\r\n                lease.numberOfMonths,\r\n                monthsPaid\r\n            );\r\n        } else {\r\n            lease.leasePaymentWindowEnd = lease.leasePaymentWindowEnd + lease.leasePaymentWindowSeconds;\r\n\r\n            emit leasePaymentPaid(\r\n                tenantAddress,\r\n                amountSentUsd\r\n            );\r\n        }\r\n    }\r\n\r\n    function collectLeaseDeposit(address payable tenantAddr) public onlyLandlord {\r\n        Lease storage lease = tenantLease[tenantAddr];\r\n        require(!lease.leaseFullyPaid, \"Cannot collect lease deposit if lease is already paid\");\r\n        require(lease.leasePaymentWindowEnd <= now, \"Lease payment must be overdue past payment window to collect lease deposit\");\r\n        require(lease.leaseDepositUsd > 0, \"Lease deposit has already been removed\");\r\n\r\n        tenantAddress = tenantAddr;\r\n        workingState = State.collectingLeaseDeposit;\r\n        fetchUsdRate();\r\n    }\r\n\r\n    function _collectLeaseDeposit() internal {\r\n        workingState = State.idle;\r\n        Lease storage lease = tenantLease[tenantAddress];\r\n        uint leaseDeposit = lease.leaseDepositUsd;\r\n        lease.leaseDepositUsd = 0;\r\n        landlordAddress.transfer(leaseDeposit.div(ETHUSD).mul(1e18));\r\n\r\n        emit leaseDepositCollected(\r\n            tenantAddress,\r\n            leaseDeposit\r\n        );\r\n    }\r\n\r\n    function reclaimLeaseDeposit() public {\r\n        Lease storage lease = tenantLease[msg.sender];\r\n        require(lease.leaseFullyPaid, \"Lease must be fully paid to take back lease deposit\");\r\n        require(lease.leaseDepositUsd > 0, \"Lease deposit has already been removed\");\r\n\r\n        tenantAddress = msg.sender;\r\n        workingState = State.reclaimingLeaseDeposit;\r\n        fetchUsdRate();\r\n    }\r\n\r\n    function _reclaimLeaseDeposit() internal {\r\n        workingState = State.idle;\r\n        Lease storage lease = tenantLease[tenantAddress];\r\n        uint leaseDeposit = lease.leaseDepositUsd;\r\n        lease.leaseDepositUsd = 0;\r\n        tenantAddress.transfer(leaseDeposit.div(ETHUSD).mul(1e18));\r\n\r\n        emit leaseDepositReclaimed(\r\n            tenantAddress,\r\n            leaseDeposit\r\n        );\r\n    }\r\n\r\n    function withdrawFunds() public onlyLandlord {\r\n        require(leaseBalanceWei > 0, \"Lease balance must be greater than 0\");\r\n        uint transferAmount = leaseBalanceWei;\r\n        leaseBalanceWei = 0;\r\n        landlordAddress.transfer(transferAmount);\r\n\r\n        emit fundsWithdrawn(\r\n            transferAmount,\r\n            leaseBalanceWei\r\n        );\r\n    }\r\n\r\n    function getLease(address tenant) public view returns (\r\n        uint8,\r\n        uint8,\r\n        uint16,\r\n        uint16,\r\n        uint32,\r\n        uint64,\r\n        uint64,\r\n        bool,\r\n        bool) {\r\n        Lease memory lease = tenantLease[tenant];\r\n        return (\r\n            lease.numberOfMonths,\r\n            lease.monthsPaid,\r\n            lease.monthlyAmountUsd,\r\n            lease.leaseDepositUsd,\r\n            lease.leasePaymentWindowSeconds,\r\n            lease.leasePaymentWindowEnd,\r\n            lease.depositPaymentWindowEnd,\r\n            lease.leaseDepositPaid,\r\n            lease.leaseFullyPaid\r\n        );\r\n    }\r\n\r\n    function getRate() public view returns (uint) {\r\n        return ETHUSD;\r\n    }\r\n\r\n    function getContractBalance() public view returns (uint) {\r\n        return uint(address(this).balance);\r\n    }\r\n\r\n    function() external payable {}\r\n}",
  "sourcePath": "C:/Users/n1g3l/Desktop/_LEVEL4.2/HCS401-DISSERTATION/Source Code/rental-frontend/contracts/leaseGenerator.sol",
  "compiler": {
    "name": "solc",
    "version": "0.5.16+commit.9c3226ce.Emscripten.clang"
  },
  "schemaVersion": "3.3.4",
  "updatedAt": "2021-03-26T11:10:55.575Z",
  "devdoc": {
    "methods": {}
  },
  "userdoc": {
    "methods": {}
  }
}